{
  "_format": "hh-sol-artifact-1",
  "contractName": "Medium",
  "sourceName": "contracts/Medium.sol",
  "abi": [
    {
      "inputs": [],
      "stateMutability": "nonpayable",
      "type": "constructor"
    },
    {
      "anonymous": false,
      "inputs": [
        {
          "indexed": true,
          "internalType": "address",
          "name": "account",
          "type": "address"
        },
        {
          "indexed": true,
          "internalType": "address",
          "name": "operator",
          "type": "address"
        },
        {
          "indexed": false,
          "internalType": "bool",
          "name": "approved",
          "type": "bool"
        }
      ],
      "name": "ApprovalForAll",
      "type": "event"
    },
    {
      "anonymous": false,
      "inputs": [
        {
          "indexed": true,
          "internalType": "address",
          "name": "operator",
          "type": "address"
        },
        {
          "indexed": true,
          "internalType": "address",
          "name": "from",
          "type": "address"
        },
        {
          "indexed": true,
          "internalType": "address",
          "name": "to",
          "type": "address"
        },
        {
          "indexed": false,
          "internalType": "uint256[]",
          "name": "ids",
          "type": "uint256[]"
        },
        {
          "indexed": false,
          "internalType": "uint256[]",
          "name": "values",
          "type": "uint256[]"
        }
      ],
      "name": "TransferBatch",
      "type": "event"
    },
    {
      "anonymous": false,
      "inputs": [
        {
          "indexed": true,
          "internalType": "address",
          "name": "operator",
          "type": "address"
        },
        {
          "indexed": true,
          "internalType": "address",
          "name": "from",
          "type": "address"
        },
        {
          "indexed": true,
          "internalType": "address",
          "name": "to",
          "type": "address"
        },
        {
          "indexed": false,
          "internalType": "uint256",
          "name": "id",
          "type": "uint256"
        },
        {
          "indexed": false,
          "internalType": "uint256",
          "name": "value",
          "type": "uint256"
        }
      ],
      "name": "TransferSingle",
      "type": "event"
    },
    {
      "anonymous": false,
      "inputs": [
        {
          "indexed": false,
          "internalType": "string",
          "name": "value",
          "type": "string"
        },
        {
          "indexed": true,
          "internalType": "uint256",
          "name": "id",
          "type": "uint256"
        }
      ],
      "name": "URI",
      "type": "event"
    },
    {
      "inputs": [
        {
          "internalType": "address",
          "name": "account",
          "type": "address"
        },
        {
          "internalType": "uint256",
          "name": "id",
          "type": "uint256"
        }
      ],
      "name": "balanceOf",
      "outputs": [
        {
          "internalType": "uint256",
          "name": "",
          "type": "uint256"
        }
      ],
      "stateMutability": "view",
      "type": "function"
    },
    {
      "inputs": [
        {
          "internalType": "address[]",
          "name": "accounts",
          "type": "address[]"
        },
        {
          "internalType": "uint256[]",
          "name": "ids",
          "type": "uint256[]"
        }
      ],
      "name": "balanceOfBatch",
      "outputs": [
        {
          "internalType": "uint256[]",
          "name": "",
          "type": "uint256[]"
        }
      ],
      "stateMutability": "view",
      "type": "function"
    },
    {
      "inputs": [
        {
          "internalType": "address",
          "name": "account",
          "type": "address"
        }
      ],
      "name": "getTokenBalance",
      "outputs": [
        {
          "internalType": "uint256",
          "name": "",
          "type": "uint256"
        }
      ],
      "stateMutability": "view",
      "type": "function"
    },
    {
      "inputs": [
        {
          "internalType": "address",
          "name": "account",
          "type": "address"
        },
        {
          "internalType": "address",
          "name": "operator",
          "type": "address"
        }
      ],
      "name": "isApprovedForAll",
      "outputs": [
        {
          "internalType": "bool",
          "name": "",
          "type": "bool"
        }
      ],
      "stateMutability": "view",
      "type": "function"
    },
    {
      "inputs": [],
      "name": "lastTimestamp",
      "outputs": [
        {
          "internalType": "uint256",
          "name": "",
          "type": "uint256"
        }
      ],
      "stateMutability": "view",
      "type": "function"
    },
    {
      "inputs": [
        {
          "internalType": "address",
          "name": "account",
          "type": "address"
        },
        {
          "internalType": "uint256",
          "name": "amount",
          "type": "uint256"
        }
      ],
      "name": "mint",
      "outputs": [],
      "stateMutability": "nonpayable",
      "type": "function"
    },
    {
      "inputs": [
        {
          "internalType": "address",
          "name": "from",
          "type": "address"
        },
        {
          "internalType": "address",
          "name": "to",
          "type": "address"
        },
        {
          "internalType": "uint256[]",
          "name": "ids",
          "type": "uint256[]"
        },
        {
          "internalType": "uint256[]",
          "name": "amounts",
          "type": "uint256[]"
        },
        {
          "internalType": "bytes",
          "name": "data",
          "type": "bytes"
        }
      ],
      "name": "safeBatchTransferFrom",
      "outputs": [],
      "stateMutability": "nonpayable",
      "type": "function"
    },
    {
      "inputs": [
        {
          "internalType": "address",
          "name": "from",
          "type": "address"
        },
        {
          "internalType": "address",
          "name": "to",
          "type": "address"
        },
        {
          "internalType": "uint256",
          "name": "id",
          "type": "uint256"
        },
        {
          "internalType": "uint256",
          "name": "amount",
          "type": "uint256"
        },
        {
          "internalType": "bytes",
          "name": "data",
          "type": "bytes"
        }
      ],
      "name": "safeTransferFrom",
      "outputs": [],
      "stateMutability": "nonpayable",
      "type": "function"
    },
    {
      "inputs": [
        {
          "internalType": "address",
          "name": "operator",
          "type": "address"
        },
        {
          "internalType": "bool",
          "name": "approved",
          "type": "bool"
        }
      ],
      "name": "setApprovalForAll",
      "outputs": [],
      "stateMutability": "nonpayable",
      "type": "function"
    },
    {
      "inputs": [
        {
          "internalType": "bytes4",
          "name": "interfaceId",
          "type": "bytes4"
        }
      ],
      "name": "supportsInterface",
      "outputs": [
        {
          "internalType": "bool",
          "name": "",
          "type": "bool"
        }
      ],
      "stateMutability": "view",
      "type": "function"
    },
    {
      "inputs": [
        {
          "internalType": "uint256",
          "name": "",
          "type": "uint256"
        }
      ],
      "name": "uri",
      "outputs": [
        {
          "internalType": "string",
          "name": "",
          "type": "string"
        }
      ],
      "stateMutability": "view",
      "type": "function"
    },
    {
      "inputs": [
        {
          "internalType": "address",
          "name": "account",
          "type": "address"
        }
      ],
      "name": "useAToken",
      "outputs": [],
      "stateMutability": "nonpayable",
      "type": "function"
    }
  ],
  "bytecode": "0x60806040523480156200001157600080fd5b506040518060200160405280600081525062000033816200004160201b60201c565b504260038190555062000172565b8060029080519060200190620000599291906200005d565b5050565b8280546200006b906200013c565b90600052602060002090601f0160209004810192826200008f5760008555620000db565b82601f10620000aa57805160ff1916838001178555620000db565b82800160010185558215620000db579182015b82811115620000da578251825591602001919060010190620000bd565b5b509050620000ea9190620000ee565b5090565b5b8082111562000109576000816000905550600101620000ef565b5090565b7f4e487b7100000000000000000000000000000000000000000000000000000000600052602260045260246000fd5b600060028204905060018216806200015557607f821691505b602082108114156200016c576200016b6200010d565b5b50919050565b61324d80620001826000396000f3fe608060405234801561001057600080fd5b50600436106100b35760003560e01c806340c10f191161007157806340c10f19146101b25780634e1273f4146101ce578063a22cb465146101fe578063c406c4a81461021a578063e985e9c514610236578063f242432a14610266576100b3565b8062fdd58e146100b857806301ffc9a7146100e85780630e89341c1461011857806319d8ac61146101485780632eb2c2d6146101665780633aecd0e314610182575b600080fd5b6100d260048036038101906100cd9190611ca6565b610282565b6040516100df9190611cf5565b60405180910390f35b61010260048036038101906100fd9190611d68565b61034b565b60405161010f9190611db0565b60405180910390f35b610132600480360381019061012d9190611dcb565b61042d565b60405161013f9190611e91565b60405180910390f35b6101506104c1565b60405161015d9190611cf5565b60405180910390f35b610180600480360381019061017b91906120b0565b6104c7565b005b61019c6004803603810190610197919061217f565b610568565b6040516101a99190611cf5565b60405180910390f35b6101cc60048036038101906101c79190611ca6565b6105b1565b005b6101e860048036038101906101e3919061226f565b610913565b6040516101f591906123a5565b60405180910390f35b610218600480360381019061021391906123f3565b610a2c565b005b610234600480360381019061022f919061217f565b610a42565b005b610250600480360381019061024b9190612433565b610ab9565b60405161025d9190611db0565b60405180910390f35b610280600480360381019061027b9190612473565b610b4d565b005b60008073ffffffffffffffffffffffffffffffffffffffff168373ffffffffffffffffffffffffffffffffffffffff1614156102f3576040517f08c379a00000000000000000000000000000000000000000000000000000000081526004016102ea9061257c565b60405180910390fd5b60008083815260200190815260200160002060008473ffffffffffffffffffffffffffffffffffffffff1673ffffffffffffffffffffffffffffffffffffffff16815260200190815260200160002054905092915050565b60007fd9b67a26000000000000000000000000000000000000000000000000000000007bffffffffffffffffffffffffffffffffffffffffffffffffffffffff1916827bffffffffffffffffffffffffffffffffffffffffffffffffffffffff1916148061041657507f0e89341c000000000000000000000000000000000000000000000000000000007bffffffffffffffffffffffffffffffffffffffffffffffffffffffff1916827bffffffffffffffffffffffffffffffffffffffffffffffffffffffff1916145b80610426575061042582610bee565b5b9050919050565b60606002805461043c906125cb565b80601f0160208091040260200160405190810160405280929190818152602001828054610468906125cb565b80156104b55780601f1061048a576101008083540402835291602001916104b5565b820191906000526020600020905b81548152906001019060200180831161049857829003601f168201915b50505050509050919050565b60035481565b6104cf610c58565b73ffffffffffffffffffffffffffffffffffffffff168573ffffffffffffffffffffffffffffffffffffffff16148061051557506105148561050f610c58565b610ab9565b5b610554576040517f08c379a000000000000000000000000000000000000000000000000000000000815260040161054b9061266f565b60405180910390fd5b6105618585858585610c60565b5050505050565b6000600560008373ffffffffffffffffffffffffffffffffffffffff1673ffffffffffffffffffffffffffffffffffffffff168152602001908152602001600020549050919050565b62014a78426105c091906126ed565b6004819055506000600660008473ffffffffffffffffffffffffffffffffffffffff1673ffffffffffffffffffffffffffffffffffffffff1681526020019081526020016000205414801561065457506000600760008473ffffffffffffffffffffffffffffffffffffffff1673ffffffffffffffffffffffffffffffffffffffff16815260200190815260200160002054145b1561069f57600b600660008473ffffffffffffffffffffffffffffffffffffffff1673ffffffffffffffffffffffffffffffffffffffff168152602001908152602001600020819055505b42620151806003546106b1919061271e565b116107035742600381905550600b600660008473ffffffffffffffffffffffffffffffffffffffff1673ffffffffffffffffffffffffffffffffffffffff168152602001908152602001600020819055505b6001600660008473ffffffffffffffffffffffffffffffffffffffff1673ffffffffffffffffffffffffffffffffffffffff1681526020019081526020016000205411610785576040517f08c379a000000000000000000000000000000000000000000000000000000000815260040161077c906127e6565b60405180910390fd5b600660008373ffffffffffffffffffffffffffffffffffffffff1673ffffffffffffffffffffffffffffffffffffffff16815260200190815260200160002054811115610807576040517f08c379a00000000000000000000000000000000000000000000000000000000081526004016107fe90612878565b60405180910390fd5b610824826004548360405180602001604052806000815250610f82565b600454600760008473ffffffffffffffffffffffffffffffffffffffff1673ffffffffffffffffffffffffffffffffffffffff1681526020019081526020016000208190555080600660008473ffffffffffffffffffffffffffffffffffffffff1673ffffffffffffffffffffffffffffffffffffffff16815260200190815260200160002060008282546108b99190612898565b925050819055506108cc82600454610282565b600560008473ffffffffffffffffffffffffffffffffffffffff1673ffffffffffffffffffffffffffffffffffffffff168152602001908152602001600020819055505050565b60608151835114610959576040517f08c379a00000000000000000000000000000000000000000000000000000000081526004016109509061293e565b60405180910390fd5b6000835167ffffffffffffffff81111561097657610975611eb8565b5b6040519080825280602002602001820160405280156109a45781602001602082028036833780820191505090505b50905060005b8451811015610a21576109f18582815181106109c9576109c861295e565b5b60200260200101518583815181106109e4576109e361295e565b5b6020026020010151610282565b828281518110610a0457610a0361295e565b5b60200260200101818152505080610a1a9061298d565b90506109aa565b508091505092915050565b610a3e610a37610c58565b8383611133565b5050565b6000610a5c8262014a7842610a5791906126ed565b610282565b11610a9c576040517f08c379a0000000000000000000000000000000000000000000000000000000008152600401610a9390612a48565b60405180910390fd5b610ab68162014a7842610aaf91906126ed565b60016112a0565b50565b6000600160008473ffffffffffffffffffffffffffffffffffffffff1673ffffffffffffffffffffffffffffffffffffffff16815260200190815260200160002060008373ffffffffffffffffffffffffffffffffffffffff1673ffffffffffffffffffffffffffffffffffffffff16815260200190815260200160002060009054906101000a900460ff16905092915050565b610b55610c58565b73ffffffffffffffffffffffffffffffffffffffff168573ffffffffffffffffffffffffffffffffffffffff161480610b9b5750610b9a85610b95610c58565b610ab9565b5b610bda576040517f08c379a0000000000000000000000000000000000000000000000000000000008152600401610bd19061266f565b60405180910390fd5b610be785858585856114e7565b5050505050565b60007f01ffc9a7000000000000000000000000000000000000000000000000000000007bffffffffffffffffffffffffffffffffffffffffffffffffffffffff1916827bffffffffffffffffffffffffffffffffffffffffffffffffffffffff1916149050919050565b600033905090565b8151835114610ca4576040517f08c379a0000000000000000000000000000000000000000000000000000000008152600401610c9b90612ada565b60405180910390fd5b600073ffffffffffffffffffffffffffffffffffffffff168473ffffffffffffffffffffffffffffffffffffffff161415610d14576040517f08c379a0000000000000000000000000000000000000000000000000000000008152600401610d0b90612b6c565b60405180910390fd5b6000610d1e610c58565b9050610d2e818787878787611783565b60005b8451811015610edf576000858281518110610d4f57610d4e61295e565b5b602002602001015190506000858381518110610d6e57610d6d61295e565b5b60200260200101519050600080600084815260200190815260200160002060008b73ffffffffffffffffffffffffffffffffffffffff1673ffffffffffffffffffffffffffffffffffffffff16815260200190815260200160002054905081811015610e0f576040517f08c379a0000000000000000000000000000000000000000000000000000000008152600401610e0690612bfe565b60405180910390fd5b81810360008085815260200190815260200160002060008c73ffffffffffffffffffffffffffffffffffffffff1673ffffffffffffffffffffffffffffffffffffffff168152602001908152602001600020819055508160008085815260200190815260200160002060008b73ffffffffffffffffffffffffffffffffffffffff1673ffffffffffffffffffffffffffffffffffffffff1681526020019081526020016000206000828254610ec4919061271e565b9250508190555050505080610ed89061298d565b9050610d31565b508473ffffffffffffffffffffffffffffffffffffffff168673ffffffffffffffffffffffffffffffffffffffff168273ffffffffffffffffffffffffffffffffffffffff167f4a39dc06d4c0dbc64b70af90fd698a233a518aa5d07e595d983b8c0526c8f7fb8787604051610f56929190612c1e565b60405180910390a4610f6c81878787878761178b565b610f7a818787878787611793565b505050505050565b600073ffffffffffffffffffffffffffffffffffffffff168473ffffffffffffffffffffffffffffffffffffffff161415610ff2576040517f08c379a0000000000000000000000000000000000000000000000000000000008152600401610fe990612cc7565b60405180910390fd5b6000610ffc610c58565b905060006110098561197a565b905060006110168561197a565b905061102783600089858589611783565b8460008088815260200190815260200160002060008973ffffffffffffffffffffffffffffffffffffffff1673ffffffffffffffffffffffffffffffffffffffff1681526020019081526020016000206000828254611086919061271e565b925050819055508673ffffffffffffffffffffffffffffffffffffffff16600073ffffffffffffffffffffffffffffffffffffffff168473ffffffffffffffffffffffffffffffffffffffff167fc3d58168c5ae7397731d063d5bbf3d657854427343f4c083240f7aacaa2d0f628989604051611104929190612ce7565b60405180910390a461111b8360008985858961178b565b61112a836000898989896119f4565b50505050505050565b8173ffffffffffffffffffffffffffffffffffffffff168373ffffffffffffffffffffffffffffffffffffffff1614156111a2576040517f08c379a000000000000000000000000000000000000000000000000000000000815260040161119990612d82565b60405180910390fd5b80600160008573ffffffffffffffffffffffffffffffffffffffff1673ffffffffffffffffffffffffffffffffffffffff16815260200190815260200160002060008473ffffffffffffffffffffffffffffffffffffffff1673ffffffffffffffffffffffffffffffffffffffff16815260200190815260200160002060006101000a81548160ff0219169083151502179055508173ffffffffffffffffffffffffffffffffffffffff168373ffffffffffffffffffffffffffffffffffffffff167f17307eab39ab6107e8899845ad3d59bd9653f200f220920489ca2b5937696c31836040516112939190611db0565b60405180910390a3505050565b600073ffffffffffffffffffffffffffffffffffffffff168373ffffffffffffffffffffffffffffffffffffffff161415611310576040517f08c379a000000000000000000000000000000000000000000000000000000000815260040161130790612e14565b60405180910390fd5b600061131a610c58565b905060006113278461197a565b905060006113348461197a565b905061135483876000858560405180602001604052806000815250611783565b600080600087815260200190815260200160002060008873ffffffffffffffffffffffffffffffffffffffff1673ffffffffffffffffffffffffffffffffffffffff168152602001908152602001600020549050848110156113eb576040517f08c379a00000000000000000000000000000000000000000000000000000000081526004016113e290612ea6565b60405180910390fd5b84810360008088815260200190815260200160002060008973ffffffffffffffffffffffffffffffffffffffff1673ffffffffffffffffffffffffffffffffffffffff16815260200190815260200160002081905550600073ffffffffffffffffffffffffffffffffffffffff168773ffffffffffffffffffffffffffffffffffffffff168573ffffffffffffffffffffffffffffffffffffffff167fc3d58168c5ae7397731d063d5bbf3d657854427343f4c083240f7aacaa2d0f6289896040516114b8929190612ce7565b60405180910390a46114de8488600086866040518060200160405280600081525061178b565b50505050505050565b600073ffffffffffffffffffffffffffffffffffffffff168473ffffffffffffffffffffffffffffffffffffffff161415611557576040517f08c379a000000000000000000000000000000000000000000000000000000000815260040161154e90612b6c565b60405180910390fd5b6000611561610c58565b9050600061156e8561197a565b9050600061157b8561197a565b905061158b838989858589611783565b600080600088815260200190815260200160002060008a73ffffffffffffffffffffffffffffffffffffffff1673ffffffffffffffffffffffffffffffffffffffff16815260200190815260200160002054905085811015611622576040517f08c379a000000000000000000000000000000000000000000000000000000000815260040161161990612bfe565b60405180910390fd5b85810360008089815260200190815260200160002060008b73ffffffffffffffffffffffffffffffffffffffff1673ffffffffffffffffffffffffffffffffffffffff168152602001908152602001600020819055508560008089815260200190815260200160002060008a73ffffffffffffffffffffffffffffffffffffffff1673ffffffffffffffffffffffffffffffffffffffff16815260200190815260200160002060008282546116d7919061271e565b925050819055508773ffffffffffffffffffffffffffffffffffffffff168973ffffffffffffffffffffffffffffffffffffffff168573ffffffffffffffffffffffffffffffffffffffff167fc3d58168c5ae7397731d063d5bbf3d657854427343f4c083240f7aacaa2d0f628a8a604051611754929190612ce7565b60405180910390a461176a848a8a86868a61178b565b611778848a8a8a8a8a6119f4565b505050505050505050565b505050505050565b505050505050565b6117b28473ffffffffffffffffffffffffffffffffffffffff16611bdb565b15611972578373ffffffffffffffffffffffffffffffffffffffff1663bc197c8187878686866040518663ffffffff1660e01b81526004016117f8959493929190612f2a565b602060405180830381600087803b15801561181257600080fd5b505af192505050801561184357506040513d601f19601f820116820180604052508101906118409190612fa7565b60015b6118e95761184f612fe1565b806308c379a014156118ac5750611864613003565b8061186f57506118ae565b806040517f08c379a00000000000000000000000000000000000000000000000000000000081526004016118a39190611e91565b60405180910390fd5b505b6040517f08c379a00000000000000000000000000000000000000000000000000000000081526004016118e09061310b565b60405180910390fd5b63bc197c8160e01b7bffffffffffffffffffffffffffffffffffffffffffffffffffffffff1916817bffffffffffffffffffffffffffffffffffffffffffffffffffffffff191614611970576040517f08c379a00000000000000000000000000000000000000000000000000000000081526004016119679061319d565b60405180910390fd5b505b505050505050565b60606000600167ffffffffffffffff81111561199957611998611eb8565b5b6040519080825280602002602001820160405280156119c75781602001602082028036833780820191505090505b50905082816000815181106119df576119de61295e565b5b60200260200101818152505080915050919050565b611a138473ffffffffffffffffffffffffffffffffffffffff16611bdb565b15611bd3578373ffffffffffffffffffffffffffffffffffffffff1663f23a6e6187878686866040518663ffffffff1660e01b8152600401611a599594939291906131bd565b602060405180830381600087803b158015611a7357600080fd5b505af1925050508015611aa457506040513d601f19601f82011682018060405250810190611aa19190612fa7565b60015b611b4a57611ab0612fe1565b806308c379a01415611b0d5750611ac5613003565b80611ad05750611b0f565b806040517f08c379a0000000000000000000000000000000000000000000000000000000008152600401611b049190611e91565b60405180910390fd5b505b6040517f08c379a0000000000000000000000000000000000000000000000000000000008152600401611b419061310b565b60405180910390fd5b63f23a6e6160e01b7bffffffffffffffffffffffffffffffffffffffffffffffffffffffff1916817bffffffffffffffffffffffffffffffffffffffffffffffffffffffff191614611bd1576040517f08c379a0000000000000000000000000000000000000000000000000000000008152600401611bc89061319d565b60405180910390fd5b505b505050505050565b6000808273ffffffffffffffffffffffffffffffffffffffff163b119050919050565b6000604051905090565b600080fd5b600080fd5b600073ffffffffffffffffffffffffffffffffffffffff82169050919050565b6000611c3d82611c12565b9050919050565b611c4d81611c32565b8114611c5857600080fd5b50565b600081359050611c6a81611c44565b92915050565b6000819050919050565b611c8381611c70565b8114611c8e57600080fd5b50565b600081359050611ca081611c7a565b92915050565b60008060408385031215611cbd57611cbc611c08565b5b6000611ccb85828601611c5b565b9250506020611cdc85828601611c91565b9150509250929050565b611cef81611c70565b82525050565b6000602082019050611d0a6000830184611ce6565b92915050565b60007fffffffff0000000000000000000000000000000000000000000000000000000082169050919050565b611d4581611d10565b8114611d5057600080fd5b50565b600081359050611d6281611d3c565b92915050565b600060208284031215611d7e57611d7d611c08565b5b6000611d8c84828501611d53565b91505092915050565b60008115159050919050565b611daa81611d95565b82525050565b6000602082019050611dc56000830184611da1565b92915050565b600060208284031215611de157611de0611c08565b5b6000611def84828501611c91565b91505092915050565b600081519050919050565b600082825260208201905092915050565b60005b83811015611e32578082015181840152602081019050611e17565b83811115611e41576000848401525b50505050565b6000601f19601f8301169050919050565b6000611e6382611df8565b611e6d8185611e03565b9350611e7d818560208601611e14565b611e8681611e47565b840191505092915050565b60006020820190508181036000830152611eab8184611e58565b905092915050565b600080fd5b7f4e487b7100000000000000000000000000000000000000000000000000000000600052604160045260246000fd5b611ef082611e47565b810181811067ffffffffffffffff82111715611f0f57611f0e611eb8565b5b80604052505050565b6000611f22611bfe565b9050611f2e8282611ee7565b919050565b600067ffffffffffffffff821115611f4e57611f4d611eb8565b5b602082029050602081019050919050565b600080fd5b6000611f77611f7284611f33565b611f18565b90508083825260208201905060208402830185811115611f9a57611f99611f5f565b5b835b81811015611fc35780611faf8882611c91565b845260208401935050602081019050611f9c565b5050509392505050565b600082601f830112611fe257611fe1611eb3565b5b8135611ff2848260208601611f64565b91505092915050565b600080fd5b600067ffffffffffffffff82111561201b5761201a611eb8565b5b61202482611e47565b9050602081019050919050565b82818337600083830152505050565b600061205361204e84612000565b611f18565b90508281526020810184848401111561206f5761206e611ffb565b5b61207a848285612031565b509392505050565b600082601f83011261209757612096611eb3565b5b81356120a7848260208601612040565b91505092915050565b600080600080600060a086880312156120cc576120cb611c08565b5b60006120da88828901611c5b565b95505060206120eb88828901611c5b565b945050604086013567ffffffffffffffff81111561210c5761210b611c0d565b5b61211888828901611fcd565b935050606086013567ffffffffffffffff81111561213957612138611c0d565b5b61214588828901611fcd565b925050608086013567ffffffffffffffff81111561216657612165611c0d565b5b61217288828901612082565b9150509295509295909350565b60006020828403121561219557612194611c08565b5b60006121a384828501611c5b565b91505092915050565b600067ffffffffffffffff8211156121c7576121c6611eb8565b5b602082029050602081019050919050565b60006121eb6121e6846121ac565b611f18565b9050808382526020820190506020840283018581111561220e5761220d611f5f565b5b835b8181101561223757806122238882611c5b565b845260208401935050602081019050612210565b5050509392505050565b600082601f83011261225657612255611eb3565b5b81356122668482602086016121d8565b91505092915050565b6000806040838503121561228657612285611c08565b5b600083013567ffffffffffffffff8111156122a4576122a3611c0d565b5b6122b085828601612241565b925050602083013567ffffffffffffffff8111156122d1576122d0611c0d565b5b6122dd85828601611fcd565b9150509250929050565b600081519050919050565b600082825260208201905092915050565b6000819050602082019050919050565b61231c81611c70565b82525050565b600061232e8383612313565b60208301905092915050565b6000602082019050919050565b6000612352826122e7565b61235c81856122f2565b935061236783612303565b8060005b8381101561239857815161237f8882612322565b975061238a8361233a565b92505060018101905061236b565b5085935050505092915050565b600060208201905081810360008301526123bf8184612347565b905092915050565b6123d081611d95565b81146123db57600080fd5b50565b6000813590506123ed816123c7565b92915050565b6000806040838503121561240a57612409611c08565b5b600061241885828601611c5b565b9250506020612429858286016123de565b9150509250929050565b6000806040838503121561244a57612449611c08565b5b600061245885828601611c5b565b925050602061246985828601611c5b565b9150509250929050565b600080600080600060a0868803121561248f5761248e611c08565b5b600061249d88828901611c5b565b95505060206124ae88828901611c5b565b94505060406124bf88828901611c91565b93505060606124d088828901611c91565b925050608086013567ffffffffffffffff8111156124f1576124f0611c0d565b5b6124fd88828901612082565b9150509295509295909350565b7f455243313135353a2061646472657373207a65726f206973206e6f742061207660008201527f616c6964206f776e657200000000000000000000000000000000000000000000602082015250565b6000612566602a83611e03565b91506125718261250a565b604082019050919050565b6000602082019050818103600083015261259581612559565b9050919050565b7f4e487b7100000000000000000000000000000000000000000000000000000000600052602260045260246000fd5b600060028204905060018216806125e357607f821691505b602082108114156125f7576125f661259c565b5b50919050565b7f455243313135353a2063616c6c6572206973206e6f7420746f6b656e206f776e60008201527f6572206e6f7220617070726f7665640000000000000000000000000000000000602082015250565b6000612659602f83611e03565b9150612664826125fd565b604082019050919050565b600060208201905081810360008301526126888161264c565b9050919050565b7f4e487b7100000000000000000000000000000000000000000000000000000000600052601260045260246000fd5b7f4e487b7100000000000000000000000000000000000000000000000000000000600052601160045260246000fd5b60006126f882611c70565b915061270383611c70565b9250826127135761271261268f565b5b828204905092915050565b600061272982611c70565b915061273483611c70565b9250827fffffffffffffffffffffffffffffffffffffffffffffffffffffffffffffffff03821115612769576127686126be565b5b828201905092915050565b7f596f752063616e6e6f74206d696e74206d6f726520746f6b656e7320746f646160008201527f792e000000000000000000000000000000000000000000000000000000000000602082015250565b60006127d0602283611e03565b91506127db82612774565b604082019050919050565b600060208201905081810360008301526127ff816127c3565b9050919050565b7f4c696d6974656420746f206d696e7420313020746f6b656e732070657220646160008201527f792e000000000000000000000000000000000000000000000000000000000000602082015250565b6000612862602283611e03565b915061286d82612806565b604082019050919050565b6000602082019050818103600083015261289181612855565b9050919050565b60006128a382611c70565b91506128ae83611c70565b9250828210156128c1576128c06126be565b5b828203905092915050565b7f455243313135353a206163636f756e747320616e6420696473206c656e67746860008201527f206d69736d617463680000000000000000000000000000000000000000000000602082015250565b6000612928602983611e03565b9150612933826128cc565b604082019050919050565b600060208201905081810360008301526129578161291b565b9050919050565b7f4e487b7100000000000000000000000000000000000000000000000000000000600052603260045260246000fd5b600061299882611c70565b91507fffffffffffffffffffffffffffffffffffffffffffffffffffffffffffffffff8214156129cb576129ca6126be565b5b600182019050919050565b7f4e6f7420656e6f75676820746f6b656e7320746f20766965772074686520617260008201527f7469636c652e0000000000000000000000000000000000000000000000000000602082015250565b6000612a32602683611e03565b9150612a3d826129d6565b604082019050919050565b60006020820190508181036000830152612a6181612a25565b9050919050565b7f455243313135353a2069647320616e6420616d6f756e7473206c656e6774682060008201527f6d69736d61746368000000000000000000000000000000000000000000000000602082015250565b6000612ac4602883611e03565b9150612acf82612a68565b604082019050919050565b60006020820190508181036000830152612af381612ab7565b9050919050565b7f455243313135353a207472616e7366657220746f20746865207a65726f20616460008201527f6472657373000000000000000000000000000000000000000000000000000000602082015250565b6000612b56602583611e03565b9150612b6182612afa565b604082019050919050565b60006020820190508181036000830152612b8581612b49565b9050919050565b7f455243313135353a20696e73756666696369656e742062616c616e636520666f60008201527f72207472616e7366657200000000000000000000000000000000000000000000602082015250565b6000612be8602a83611e03565b9150612bf382612b8c565b604082019050919050565b60006020820190508181036000830152612c1781612bdb565b9050919050565b60006040820190508181036000830152612c388185612347565b90508181036020830152612c4c8184612347565b90509392505050565b7f455243313135353a206d696e7420746f20746865207a65726f2061646472657360008201527f7300000000000000000000000000000000000000000000000000000000000000602082015250565b6000612cb1602183611e03565b9150612cbc82612c55565b604082019050919050565b60006020820190508181036000830152612ce081612ca4565b9050919050565b6000604082019050612cfc6000830185611ce6565b612d096020830184611ce6565b9392505050565b7f455243313135353a2073657474696e6720617070726f76616c2073746174757360008201527f20666f722073656c660000000000000000000000000000000000000000000000602082015250565b6000612d6c602983611e03565b9150612d7782612d10565b604082019050919050565b60006020820190508181036000830152612d9b81612d5f565b9050919050565b7f455243313135353a206275726e2066726f6d20746865207a65726f206164647260008201527f6573730000000000000000000000000000000000000000000000000000000000602082015250565b6000612dfe602383611e03565b9150612e0982612da2565b604082019050919050565b60006020820190508181036000830152612e2d81612df1565b9050919050565b7f455243313135353a206275726e20616d6f756e7420657863656564732062616c60008201527f616e636500000000000000000000000000000000000000000000000000000000602082015250565b6000612e90602483611e03565b9150612e9b82612e34565b604082019050919050565b60006020820190508181036000830152612ebf81612e83565b9050919050565b612ecf81611c32565b82525050565b600081519050919050565b600082825260208201905092915050565b6000612efc82612ed5565b612f068185612ee0565b9350612f16818560208601611e14565b612f1f81611e47565b840191505092915050565b600060a082019050612f3f6000830188612ec6565b612f4c6020830187612ec6565b8181036040830152612f5e8186612347565b90508181036060830152612f728185612347565b90508181036080830152612f868184612ef1565b90509695505050505050565b600081519050612fa181611d3c565b92915050565b600060208284031215612fbd57612fbc611c08565b5b6000612fcb84828501612f92565b91505092915050565b60008160e01c9050919050565b600060033d11156130005760046000803e612ffd600051612fd4565b90505b90565b600060443d101561301357613096565b61301b611bfe565b60043d036004823e80513d602482011167ffffffffffffffff82111715613043575050613096565b808201805167ffffffffffffffff8111156130615750505050613096565b80602083010160043d03850181111561307e575050505050613096565b61308d82602001850186611ee7565b82955050505050505b90565b7f455243313135353a207472616e7366657220746f206e6f6e204552433131353560008201527f526563656976657220696d706c656d656e746572000000000000000000000000602082015250565b60006130f5603483611e03565b915061310082613099565b604082019050919050565b60006020820190508181036000830152613124816130e8565b9050919050565b7f455243313135353a204552433131353552656365697665722072656a6563746560008201527f6420746f6b656e73000000000000000000000000000000000000000000000000602082015250565b6000613187602883611e03565b91506131928261312b565b604082019050919050565b600060208201905081810360008301526131b68161317a565b9050919050565b600060a0820190506131d26000830188612ec6565b6131df6020830187612ec6565b6131ec6040830186611ce6565b6131f96060830185611ce6565b818103608083015261320b8184612ef1565b9050969550505050505056fea2646970667358221220c493b14f09b3261fcc419df440543d973d521b176203cd2f57da8dd4a2c3d41364736f6c63430008090033",
  "linkReferences": {},
  "deployedLinkReferences": {}
}