{
  "_format": "hh-sol-artifact-1",
  "contractName": "Medium",
  "sourceName": "contracts/Medium.sol",
  "abi": [
    {
      "inputs": [],
      "stateMutability": "nonpayable",
      "type": "constructor"
    },
    {
      "anonymous": false,
      "inputs": [
        {
          "indexed": true,
          "internalType": "address",
          "name": "account",
          "type": "address"
        },
        {
          "indexed": true,
          "internalType": "address",
          "name": "operator",
          "type": "address"
        },
        {
          "indexed": false,
          "internalType": "bool",
          "name": "approved",
          "type": "bool"
        }
      ],
      "name": "ApprovalForAll",
      "type": "event"
    },
    {
      "anonymous": false,
      "inputs": [
        {
          "indexed": true,
          "internalType": "address",
          "name": "operator",
          "type": "address"
        },
        {
          "indexed": true,
          "internalType": "address",
          "name": "from",
          "type": "address"
        },
        {
          "indexed": true,
          "internalType": "address",
          "name": "to",
          "type": "address"
        },
        {
          "indexed": false,
          "internalType": "uint256[]",
          "name": "ids",
          "type": "uint256[]"
        },
        {
          "indexed": false,
          "internalType": "uint256[]",
          "name": "values",
          "type": "uint256[]"
        }
      ],
      "name": "TransferBatch",
      "type": "event"
    },
    {
      "anonymous": false,
      "inputs": [
        {
          "indexed": true,
          "internalType": "address",
          "name": "operator",
          "type": "address"
        },
        {
          "indexed": true,
          "internalType": "address",
          "name": "from",
          "type": "address"
        },
        {
          "indexed": true,
          "internalType": "address",
          "name": "to",
          "type": "address"
        },
        {
          "indexed": false,
          "internalType": "uint256",
          "name": "id",
          "type": "uint256"
        },
        {
          "indexed": false,
          "internalType": "uint256",
          "name": "value",
          "type": "uint256"
        }
      ],
      "name": "TransferSingle",
      "type": "event"
    },
    {
      "anonymous": false,
      "inputs": [
        {
          "indexed": false,
          "internalType": "string",
          "name": "value",
          "type": "string"
        },
        {
          "indexed": true,
          "internalType": "uint256",
          "name": "id",
          "type": "uint256"
        }
      ],
      "name": "URI",
      "type": "event"
    },
    {
      "inputs": [
        {
          "internalType": "address",
          "name": "account",
          "type": "address"
        },
        {
          "internalType": "uint256",
          "name": "id",
          "type": "uint256"
        }
      ],
      "name": "balanceOf",
      "outputs": [
        {
          "internalType": "uint256",
          "name": "",
          "type": "uint256"
        }
      ],
      "stateMutability": "view",
      "type": "function"
    },
    {
      "inputs": [
        {
          "internalType": "address[]",
          "name": "accounts",
          "type": "address[]"
        },
        {
          "internalType": "uint256[]",
          "name": "ids",
          "type": "uint256[]"
        }
      ],
      "name": "balanceOfBatch",
      "outputs": [
        {
          "internalType": "uint256[]",
          "name": "",
          "type": "uint256[]"
        }
      ],
      "stateMutability": "view",
      "type": "function"
    },
    {
      "inputs": [
        {
          "internalType": "address",
          "name": "account",
          "type": "address"
        }
      ],
      "name": "getTokenBalance",
      "outputs": [
        {
          "internalType": "uint256",
          "name": "",
          "type": "uint256"
        }
      ],
      "stateMutability": "view",
      "type": "function"
    },
    {
      "inputs": [
        {
          "internalType": "address",
          "name": "account",
          "type": "address"
        },
        {
          "internalType": "address",
          "name": "operator",
          "type": "address"
        }
      ],
      "name": "isApprovedForAll",
      "outputs": [
        {
          "internalType": "bool",
          "name": "",
          "type": "bool"
        }
      ],
      "stateMutability": "view",
      "type": "function"
    },
    {
      "inputs": [],
      "name": "lastTimestamp",
      "outputs": [
        {
          "internalType": "uint256",
          "name": "",
          "type": "uint256"
        }
      ],
      "stateMutability": "view",
      "type": "function"
    },
    {
      "inputs": [
        {
          "internalType": "address",
          "name": "account",
          "type": "address"
        },
        {
          "internalType": "uint256",
          "name": "amount",
          "type": "uint256"
        }
      ],
      "name": "mint",
      "outputs": [],
      "stateMutability": "nonpayable",
      "type": "function"
    },
    {
      "inputs": [
        {
          "internalType": "address",
          "name": "from",
          "type": "address"
        },
        {
          "internalType": "address",
          "name": "to",
          "type": "address"
        },
        {
          "internalType": "uint256[]",
          "name": "ids",
          "type": "uint256[]"
        },
        {
          "internalType": "uint256[]",
          "name": "amounts",
          "type": "uint256[]"
        },
        {
          "internalType": "bytes",
          "name": "data",
          "type": "bytes"
        }
      ],
      "name": "safeBatchTransferFrom",
      "outputs": [],
      "stateMutability": "nonpayable",
      "type": "function"
    },
    {
      "inputs": [
        {
          "internalType": "address",
          "name": "from",
          "type": "address"
        },
        {
          "internalType": "address",
          "name": "to",
          "type": "address"
        },
        {
          "internalType": "uint256",
          "name": "id",
          "type": "uint256"
        },
        {
          "internalType": "uint256",
          "name": "amount",
          "type": "uint256"
        },
        {
          "internalType": "bytes",
          "name": "data",
          "type": "bytes"
        }
      ],
      "name": "safeTransferFrom",
      "outputs": [],
      "stateMutability": "nonpayable",
      "type": "function"
    },
    {
      "inputs": [
        {
          "internalType": "address",
          "name": "operator",
          "type": "address"
        },
        {
          "internalType": "bool",
          "name": "approved",
          "type": "bool"
        }
      ],
      "name": "setApprovalForAll",
      "outputs": [],
      "stateMutability": "nonpayable",
      "type": "function"
    },
    {
      "inputs": [
        {
          "internalType": "bytes4",
          "name": "interfaceId",
          "type": "bytes4"
        }
      ],
      "name": "supportsInterface",
      "outputs": [
        {
          "internalType": "bool",
          "name": "",
          "type": "bool"
        }
      ],
      "stateMutability": "view",
      "type": "function"
    },
    {
      "inputs": [
        {
          "internalType": "uint256",
          "name": "",
          "type": "uint256"
        }
      ],
      "name": "uri",
      "outputs": [
        {
          "internalType": "string",
          "name": "",
          "type": "string"
        }
      ],
      "stateMutability": "view",
      "type": "function"
    },
    {
      "inputs": [
        {
          "internalType": "address",
          "name": "account",
          "type": "address"
        }
      ],
      "name": "useAToken",
      "outputs": [],
      "stateMutability": "nonpayable",
      "type": "function"
    }
  ],
  "bytecode": "0x60806040523480156200001157600080fd5b506040518060200160405280600081525062000033816200004160201b60201c565b504260038190555062000172565b8060029080519060200190620000599291906200005d565b5050565b8280546200006b906200013c565b90600052602060002090601f0160209004810192826200008f5760008555620000db565b82601f10620000aa57805160ff1916838001178555620000db565b82800160010185558215620000db579182015b82811115620000da578251825591602001919060010190620000bd565b5b509050620000ea9190620000ee565b5090565b5b8082111562000109576000816000905550600101620000ef565b5090565b7f4e487b7100000000000000000000000000000000000000000000000000000000600052602260045260246000fd5b600060028204905060018216806200015557607f821691505b602082108114156200016c576200016b6200010d565b5b50919050565b6131d680620001826000396000f3fe608060405234801561001057600080fd5b50600436106100b35760003560e01c806340c10f191161007157806340c10f19146101b25780634e1273f4146101ce578063a22cb465146101fe578063c406c4a81461021a578063e985e9c514610236578063f242432a14610266576100b3565b8062fdd58e146100b857806301ffc9a7146100e85780630e89341c1461011857806319d8ac61146101485780632eb2c2d6146101665780633aecd0e314610182575b600080fd5b6100d260048036038101906100cd9190611c2f565b610282565b6040516100df9190611c7e565b60405180910390f35b61010260048036038101906100fd9190611cf1565b61034b565b60405161010f9190611d39565b60405180910390f35b610132600480360381019061012d9190611d54565b61042d565b60405161013f9190611e1a565b60405180910390f35b6101506104c1565b60405161015d9190611c7e565b60405180910390f35b610180600480360381019061017b9190612039565b6104c7565b005b61019c60048036038101906101979190612108565b610568565b6040516101a99190611c7e565b60405180910390f35b6101cc60048036038101906101c79190611c2f565b610589565b005b6101e860048036038101906101e391906121f8565b61089c565b6040516101f5919061232e565b60405180910390f35b6102186004803603810190610213919061237c565b6109b5565b005b610234600480360381019061022f9190612108565b6109cb565b005b610250600480360381019061024b91906123bc565b610a42565b60405161025d9190611d39565b60405180910390f35b610280600480360381019061027b91906123fc565b610ad6565b005b60008073ffffffffffffffffffffffffffffffffffffffff168373ffffffffffffffffffffffffffffffffffffffff1614156102f3576040517f08c379a00000000000000000000000000000000000000000000000000000000081526004016102ea90612505565b60405180910390fd5b60008083815260200190815260200160002060008473ffffffffffffffffffffffffffffffffffffffff1673ffffffffffffffffffffffffffffffffffffffff16815260200190815260200160002054905092915050565b60007fd9b67a26000000000000000000000000000000000000000000000000000000007bffffffffffffffffffffffffffffffffffffffffffffffffffffffff1916827bffffffffffffffffffffffffffffffffffffffffffffffffffffffff1916148061041657507f0e89341c000000000000000000000000000000000000000000000000000000007bffffffffffffffffffffffffffffffffffffffffffffffffffffffff1916827bffffffffffffffffffffffffffffffffffffffffffffffffffffffff1916145b80610426575061042582610b77565b5b9050919050565b60606002805461043c90612554565b80601f016020809104026020016040519081016040528092919081815260200182805461046890612554565b80156104b55780601f1061048a576101008083540402835291602001916104b5565b820191906000526020600020905b81548152906001019060200180831161049857829003601f168201915b50505050509050919050565b60035481565b6104cf610be1565b73ffffffffffffffffffffffffffffffffffffffff168573ffffffffffffffffffffffffffffffffffffffff16148061051557506105148561050f610be1565b610a42565b5b610554576040517f08c379a000000000000000000000000000000000000000000000000000000000815260040161054b906125f8565b60405180910390fd5b6105618585858585610be9565b5050505050565b60006105828262014a784261057d9190612676565b610282565b9050919050565b62014a78426105989190612676565b6004819055506000600560008473ffffffffffffffffffffffffffffffffffffffff1673ffffffffffffffffffffffffffffffffffffffff1681526020019081526020016000205414801561062c57506000600660008473ffffffffffffffffffffffffffffffffffffffff1673ffffffffffffffffffffffffffffffffffffffff16815260200190815260200160002054145b1561067757600b600560008473ffffffffffffffffffffffffffffffffffffffff1673ffffffffffffffffffffffffffffffffffffffff168152602001908152602001600020819055505b426201518060035461068991906126a7565b116106db5742600381905550600b600560008473ffffffffffffffffffffffffffffffffffffffff1673ffffffffffffffffffffffffffffffffffffffff168152602001908152602001600020819055505b6001600560008473ffffffffffffffffffffffffffffffffffffffff1673ffffffffffffffffffffffffffffffffffffffff168152602001908152602001600020541161075d576040517f08c379a00000000000000000000000000000000000000000000000000000000081526004016107549061276f565b60405180910390fd5b600560008373ffffffffffffffffffffffffffffffffffffffff1673ffffffffffffffffffffffffffffffffffffffff168152602001908152602001600020548111156107df576040517f08c379a00000000000000000000000000000000000000000000000000000000081526004016107d690612801565b60405180910390fd5b6107fc826004548360405180602001604052806000815250610f0b565b600454600660008473ffffffffffffffffffffffffffffffffffffffff1673ffffffffffffffffffffffffffffffffffffffff1681526020019081526020016000208190555080600560008473ffffffffffffffffffffffffffffffffffffffff1673ffffffffffffffffffffffffffffffffffffffff16815260200190815260200160002060008282546108919190612821565b925050819055505050565b606081518351146108e2576040517f08c379a00000000000000000000000000000000000000000000000000000000081526004016108d9906128c7565b60405180910390fd5b6000835167ffffffffffffffff8111156108ff576108fe611e41565b5b60405190808252806020026020018201604052801561092d5781602001602082028036833780820191505090505b50905060005b84518110156109aa5761097a858281518110610952576109516128e7565b5b602002602001015185838151811061096d5761096c6128e7565b5b6020026020010151610282565b82828151811061098d5761098c6128e7565b5b602002602001018181525050806109a390612916565b9050610933565b508091505092915050565b6109c76109c0610be1565b83836110bc565b5050565b60006109e58262014a78426109e09190612676565b610282565b11610a25576040517f08c379a0000000000000000000000000000000000000000000000000000000008152600401610a1c906129d1565b60405180910390fd5b610a3f8162014a7842610a389190612676565b6001611229565b50565b6000600160008473ffffffffffffffffffffffffffffffffffffffff1673ffffffffffffffffffffffffffffffffffffffff16815260200190815260200160002060008373ffffffffffffffffffffffffffffffffffffffff1673ffffffffffffffffffffffffffffffffffffffff16815260200190815260200160002060009054906101000a900460ff16905092915050565b610ade610be1565b73ffffffffffffffffffffffffffffffffffffffff168573ffffffffffffffffffffffffffffffffffffffff161480610b245750610b2385610b1e610be1565b610a42565b5b610b63576040517f08c379a0000000000000000000000000000000000000000000000000000000008152600401610b5a906125f8565b60405180910390fd5b610b708585858585611470565b5050505050565b60007f01ffc9a7000000000000000000000000000000000000000000000000000000007bffffffffffffffffffffffffffffffffffffffffffffffffffffffff1916827bffffffffffffffffffffffffffffffffffffffffffffffffffffffff1916149050919050565b600033905090565b8151835114610c2d576040517f08c379a0000000000000000000000000000000000000000000000000000000008152600401610c2490612a63565b60405180910390fd5b600073ffffffffffffffffffffffffffffffffffffffff168473ffffffffffffffffffffffffffffffffffffffff161415610c9d576040517f08c379a0000000000000000000000000000000000000000000000000000000008152600401610c9490612af5565b60405180910390fd5b6000610ca7610be1565b9050610cb781878787878761170c565b60005b8451811015610e68576000858281518110610cd857610cd76128e7565b5b602002602001015190506000858381518110610cf757610cf66128e7565b5b60200260200101519050600080600084815260200190815260200160002060008b73ffffffffffffffffffffffffffffffffffffffff1673ffffffffffffffffffffffffffffffffffffffff16815260200190815260200160002054905081811015610d98576040517f08c379a0000000000000000000000000000000000000000000000000000000008152600401610d8f90612b87565b60405180910390fd5b81810360008085815260200190815260200160002060008c73ffffffffffffffffffffffffffffffffffffffff1673ffffffffffffffffffffffffffffffffffffffff168152602001908152602001600020819055508160008085815260200190815260200160002060008b73ffffffffffffffffffffffffffffffffffffffff1673ffffffffffffffffffffffffffffffffffffffff1681526020019081526020016000206000828254610e4d91906126a7565b9250508190555050505080610e6190612916565b9050610cba565b508473ffffffffffffffffffffffffffffffffffffffff168673ffffffffffffffffffffffffffffffffffffffff168273ffffffffffffffffffffffffffffffffffffffff167f4a39dc06d4c0dbc64b70af90fd698a233a518aa5d07e595d983b8c0526c8f7fb8787604051610edf929190612ba7565b60405180910390a4610ef5818787878787611714565b610f0381878787878761171c565b505050505050565b600073ffffffffffffffffffffffffffffffffffffffff168473ffffffffffffffffffffffffffffffffffffffff161415610f7b576040517f08c379a0000000000000000000000000000000000000000000000000000000008152600401610f7290612c50565b60405180910390fd5b6000610f85610be1565b90506000610f9285611903565b90506000610f9f85611903565b9050610fb08360008985858961170c565b8460008088815260200190815260200160002060008973ffffffffffffffffffffffffffffffffffffffff1673ffffffffffffffffffffffffffffffffffffffff168152602001908152602001600020600082825461100f91906126a7565b925050819055508673ffffffffffffffffffffffffffffffffffffffff16600073ffffffffffffffffffffffffffffffffffffffff168473ffffffffffffffffffffffffffffffffffffffff167fc3d58168c5ae7397731d063d5bbf3d657854427343f4c083240f7aacaa2d0f62898960405161108d929190612c70565b60405180910390a46110a483600089858589611714565b6110b38360008989898961197d565b50505050505050565b8173ffffffffffffffffffffffffffffffffffffffff168373ffffffffffffffffffffffffffffffffffffffff16141561112b576040517f08c379a000000000000000000000000000000000000000000000000000000000815260040161112290612d0b565b60405180910390fd5b80600160008573ffffffffffffffffffffffffffffffffffffffff1673ffffffffffffffffffffffffffffffffffffffff16815260200190815260200160002060008473ffffffffffffffffffffffffffffffffffffffff1673ffffffffffffffffffffffffffffffffffffffff16815260200190815260200160002060006101000a81548160ff0219169083151502179055508173ffffffffffffffffffffffffffffffffffffffff168373ffffffffffffffffffffffffffffffffffffffff167f17307eab39ab6107e8899845ad3d59bd9653f200f220920489ca2b5937696c318360405161121c9190611d39565b60405180910390a3505050565b600073ffffffffffffffffffffffffffffffffffffffff168373ffffffffffffffffffffffffffffffffffffffff161415611299576040517f08c379a000000000000000000000000000000000000000000000000000000000815260040161129090612d9d565b60405180910390fd5b60006112a3610be1565b905060006112b084611903565b905060006112bd84611903565b90506112dd8387600085856040518060200160405280600081525061170c565b600080600087815260200190815260200160002060008873ffffffffffffffffffffffffffffffffffffffff1673ffffffffffffffffffffffffffffffffffffffff16815260200190815260200160002054905084811015611374576040517f08c379a000000000000000000000000000000000000000000000000000000000815260040161136b90612e2f565b60405180910390fd5b84810360008088815260200190815260200160002060008973ffffffffffffffffffffffffffffffffffffffff1673ffffffffffffffffffffffffffffffffffffffff16815260200190815260200160002081905550600073ffffffffffffffffffffffffffffffffffffffff168773ffffffffffffffffffffffffffffffffffffffff168573ffffffffffffffffffffffffffffffffffffffff167fc3d58168c5ae7397731d063d5bbf3d657854427343f4c083240f7aacaa2d0f628989604051611441929190612c70565b60405180910390a461146784886000868660405180602001604052806000815250611714565b50505050505050565b600073ffffffffffffffffffffffffffffffffffffffff168473ffffffffffffffffffffffffffffffffffffffff1614156114e0576040517f08c379a00000000000000000000000000000000000000000000000000000000081526004016114d790612af5565b60405180910390fd5b60006114ea610be1565b905060006114f785611903565b9050600061150485611903565b905061151483898985858961170c565b600080600088815260200190815260200160002060008a73ffffffffffffffffffffffffffffffffffffffff1673ffffffffffffffffffffffffffffffffffffffff168152602001908152602001600020549050858110156115ab576040517f08c379a00000000000000000000000000000000000000000000000000000000081526004016115a290612b87565b60405180910390fd5b85810360008089815260200190815260200160002060008b73ffffffffffffffffffffffffffffffffffffffff1673ffffffffffffffffffffffffffffffffffffffff168152602001908152602001600020819055508560008089815260200190815260200160002060008a73ffffffffffffffffffffffffffffffffffffffff1673ffffffffffffffffffffffffffffffffffffffff168152602001908152602001600020600082825461166091906126a7565b925050819055508773ffffffffffffffffffffffffffffffffffffffff168973ffffffffffffffffffffffffffffffffffffffff168573ffffffffffffffffffffffffffffffffffffffff167fc3d58168c5ae7397731d063d5bbf3d657854427343f4c083240f7aacaa2d0f628a8a6040516116dd929190612c70565b60405180910390a46116f3848a8a86868a611714565b611701848a8a8a8a8a61197d565b505050505050505050565b505050505050565b505050505050565b61173b8473ffffffffffffffffffffffffffffffffffffffff16611b64565b156118fb578373ffffffffffffffffffffffffffffffffffffffff1663bc197c8187878686866040518663ffffffff1660e01b8152600401611781959493929190612eb3565b602060405180830381600087803b15801561179b57600080fd5b505af19250505080156117cc57506040513d601f19601f820116820180604052508101906117c99190612f30565b60015b611872576117d8612f6a565b806308c379a0141561183557506117ed612f8c565b806117f85750611837565b806040517f08c379a000000000000000000000000000000000000000000000000000000000815260040161182c9190611e1a565b60405180910390fd5b505b6040517f08c379a000000000000000000000000000000000000000000000000000000000815260040161186990613094565b60405180910390fd5b63bc197c8160e01b7bffffffffffffffffffffffffffffffffffffffffffffffffffffffff1916817bffffffffffffffffffffffffffffffffffffffffffffffffffffffff1916146118f9576040517f08c379a00000000000000000000000000000000000000000000000000000000081526004016118f090613126565b60405180910390fd5b505b505050505050565b60606000600167ffffffffffffffff81111561192257611921611e41565b5b6040519080825280602002602001820160405280156119505781602001602082028036833780820191505090505b5090508281600081518110611968576119676128e7565b5b60200260200101818152505080915050919050565b61199c8473ffffffffffffffffffffffffffffffffffffffff16611b64565b15611b5c578373ffffffffffffffffffffffffffffffffffffffff1663f23a6e6187878686866040518663ffffffff1660e01b81526004016119e2959493929190613146565b602060405180830381600087803b1580156119fc57600080fd5b505af1925050508015611a2d57506040513d601f19601f82011682018060405250810190611a2a9190612f30565b60015b611ad357611a39612f6a565b806308c379a01415611a965750611a4e612f8c565b80611a595750611a98565b806040517f08c379a0000000000000000000000000000000000000000000000000000000008152600401611a8d9190611e1a565b60405180910390fd5b505b6040517f08c379a0000000000000000000000000000000000000000000000000000000008152600401611aca90613094565b60405180910390fd5b63f23a6e6160e01b7bffffffffffffffffffffffffffffffffffffffffffffffffffffffff1916817bffffffffffffffffffffffffffffffffffffffffffffffffffffffff191614611b5a576040517f08c379a0000000000000000000000000000000000000000000000000000000008152600401611b5190613126565b60405180910390fd5b505b505050505050565b6000808273ffffffffffffffffffffffffffffffffffffffff163b119050919050565b6000604051905090565b600080fd5b600080fd5b600073ffffffffffffffffffffffffffffffffffffffff82169050919050565b6000611bc682611b9b565b9050919050565b611bd681611bbb565b8114611be157600080fd5b50565b600081359050611bf381611bcd565b92915050565b6000819050919050565b611c0c81611bf9565b8114611c1757600080fd5b50565b600081359050611c2981611c03565b92915050565b60008060408385031215611c4657611c45611b91565b5b6000611c5485828601611be4565b9250506020611c6585828601611c1a565b9150509250929050565b611c7881611bf9565b82525050565b6000602082019050611c936000830184611c6f565b92915050565b60007fffffffff0000000000000000000000000000000000000000000000000000000082169050919050565b611cce81611c99565b8114611cd957600080fd5b50565b600081359050611ceb81611cc5565b92915050565b600060208284031215611d0757611d06611b91565b5b6000611d1584828501611cdc565b91505092915050565b60008115159050919050565b611d3381611d1e565b82525050565b6000602082019050611d4e6000830184611d2a565b92915050565b600060208284031215611d6a57611d69611b91565b5b6000611d7884828501611c1a565b91505092915050565b600081519050919050565b600082825260208201905092915050565b60005b83811015611dbb578082015181840152602081019050611da0565b83811115611dca576000848401525b50505050565b6000601f19601f8301169050919050565b6000611dec82611d81565b611df68185611d8c565b9350611e06818560208601611d9d565b611e0f81611dd0565b840191505092915050565b60006020820190508181036000830152611e348184611de1565b905092915050565b600080fd5b7f4e487b7100000000000000000000000000000000000000000000000000000000600052604160045260246000fd5b611e7982611dd0565b810181811067ffffffffffffffff82111715611e9857611e97611e41565b5b80604052505050565b6000611eab611b87565b9050611eb78282611e70565b919050565b600067ffffffffffffffff821115611ed757611ed6611e41565b5b602082029050602081019050919050565b600080fd5b6000611f00611efb84611ebc565b611ea1565b90508083825260208201905060208402830185811115611f2357611f22611ee8565b5b835b81811015611f4c5780611f388882611c1a565b845260208401935050602081019050611f25565b5050509392505050565b600082601f830112611f6b57611f6a611e3c565b5b8135611f7b848260208601611eed565b91505092915050565b600080fd5b600067ffffffffffffffff821115611fa457611fa3611e41565b5b611fad82611dd0565b9050602081019050919050565b82818337600083830152505050565b6000611fdc611fd784611f89565b611ea1565b905082815260208101848484011115611ff857611ff7611f84565b5b612003848285611fba565b509392505050565b600082601f8301126120205761201f611e3c565b5b8135612030848260208601611fc9565b91505092915050565b600080600080600060a0868803121561205557612054611b91565b5b600061206388828901611be4565b955050602061207488828901611be4565b945050604086013567ffffffffffffffff81111561209557612094611b96565b5b6120a188828901611f56565b935050606086013567ffffffffffffffff8111156120c2576120c1611b96565b5b6120ce88828901611f56565b925050608086013567ffffffffffffffff8111156120ef576120ee611b96565b5b6120fb8882890161200b565b9150509295509295909350565b60006020828403121561211e5761211d611b91565b5b600061212c84828501611be4565b91505092915050565b600067ffffffffffffffff8211156121505761214f611e41565b5b602082029050602081019050919050565b600061217461216f84612135565b611ea1565b9050808382526020820190506020840283018581111561219757612196611ee8565b5b835b818110156121c057806121ac8882611be4565b845260208401935050602081019050612199565b5050509392505050565b600082601f8301126121df576121de611e3c565b5b81356121ef848260208601612161565b91505092915050565b6000806040838503121561220f5761220e611b91565b5b600083013567ffffffffffffffff81111561222d5761222c611b96565b5b612239858286016121ca565b925050602083013567ffffffffffffffff81111561225a57612259611b96565b5b61226685828601611f56565b9150509250929050565b600081519050919050565b600082825260208201905092915050565b6000819050602082019050919050565b6122a581611bf9565b82525050565b60006122b7838361229c565b60208301905092915050565b6000602082019050919050565b60006122db82612270565b6122e5818561227b565b93506122f08361228c565b8060005b8381101561232157815161230888826122ab565b9750612313836122c3565b9250506001810190506122f4565b5085935050505092915050565b6000602082019050818103600083015261234881846122d0565b905092915050565b61235981611d1e565b811461236457600080fd5b50565b60008135905061237681612350565b92915050565b6000806040838503121561239357612392611b91565b5b60006123a185828601611be4565b92505060206123b285828601612367565b9150509250929050565b600080604083850312156123d3576123d2611b91565b5b60006123e185828601611be4565b92505060206123f285828601611be4565b9150509250929050565b600080600080600060a0868803121561241857612417611b91565b5b600061242688828901611be4565b955050602061243788828901611be4565b945050604061244888828901611c1a565b935050606061245988828901611c1a565b925050608086013567ffffffffffffffff81111561247a57612479611b96565b5b6124868882890161200b565b9150509295509295909350565b7f455243313135353a2061646472657373207a65726f206973206e6f742061207660008201527f616c6964206f776e657200000000000000000000000000000000000000000000602082015250565b60006124ef602a83611d8c565b91506124fa82612493565b604082019050919050565b6000602082019050818103600083015261251e816124e2565b9050919050565b7f4e487b7100000000000000000000000000000000000000000000000000000000600052602260045260246000fd5b6000600282049050600182168061256c57607f821691505b602082108114156125805761257f612525565b5b50919050565b7f455243313135353a2063616c6c6572206973206e6f7420746f6b656e206f776e60008201527f6572206e6f7220617070726f7665640000000000000000000000000000000000602082015250565b60006125e2602f83611d8c565b91506125ed82612586565b604082019050919050565b60006020820190508181036000830152612611816125d5565b9050919050565b7f4e487b7100000000000000000000000000000000000000000000000000000000600052601260045260246000fd5b7f4e487b7100000000000000000000000000000000000000000000000000000000600052601160045260246000fd5b600061268182611bf9565b915061268c83611bf9565b92508261269c5761269b612618565b5b828204905092915050565b60006126b282611bf9565b91506126bd83611bf9565b9250827fffffffffffffffffffffffffffffffffffffffffffffffffffffffffffffffff038211156126f2576126f1612647565b5b828201905092915050565b7f596f752063616e6e6f74206d696e74206d6f726520746f6b656e7320746f646160008201527f792e000000000000000000000000000000000000000000000000000000000000602082015250565b6000612759602283611d8c565b9150612764826126fd565b604082019050919050565b600060208201905081810360008301526127888161274c565b9050919050565b7f4c696d6974656420746f206d696e7420313020746f6b656e732070657220646160008201527f792e000000000000000000000000000000000000000000000000000000000000602082015250565b60006127eb602283611d8c565b91506127f68261278f565b604082019050919050565b6000602082019050818103600083015261281a816127de565b9050919050565b600061282c82611bf9565b915061283783611bf9565b92508282101561284a57612849612647565b5b828203905092915050565b7f455243313135353a206163636f756e747320616e6420696473206c656e67746860008201527f206d69736d617463680000000000000000000000000000000000000000000000602082015250565b60006128b1602983611d8c565b91506128bc82612855565b604082019050919050565b600060208201905081810360008301526128e0816128a4565b9050919050565b7f4e487b7100000000000000000000000000000000000000000000000000000000600052603260045260246000fd5b600061292182611bf9565b91507fffffffffffffffffffffffffffffffffffffffffffffffffffffffffffffffff82141561295457612953612647565b5b600182019050919050565b7f4e6f7420656e6f75676820746f6b656e7320746f20766965772074686520617260008201527f7469636c652e0000000000000000000000000000000000000000000000000000602082015250565b60006129bb602683611d8c565b91506129c68261295f565b604082019050919050565b600060208201905081810360008301526129ea816129ae565b9050919050565b7f455243313135353a2069647320616e6420616d6f756e7473206c656e6774682060008201527f6d69736d61746368000000000000000000000000000000000000000000000000602082015250565b6000612a4d602883611d8c565b9150612a58826129f1565b604082019050919050565b60006020820190508181036000830152612a7c81612a40565b9050919050565b7f455243313135353a207472616e7366657220746f20746865207a65726f20616460008201527f6472657373000000000000000000000000000000000000000000000000000000602082015250565b6000612adf602583611d8c565b9150612aea82612a83565b604082019050919050565b60006020820190508181036000830152612b0e81612ad2565b9050919050565b7f455243313135353a20696e73756666696369656e742062616c616e636520666f60008201527f72207472616e7366657200000000000000000000000000000000000000000000602082015250565b6000612b71602a83611d8c565b9150612b7c82612b15565b604082019050919050565b60006020820190508181036000830152612ba081612b64565b9050919050565b60006040820190508181036000830152612bc181856122d0565b90508181036020830152612bd581846122d0565b90509392505050565b7f455243313135353a206d696e7420746f20746865207a65726f2061646472657360008201527f7300000000000000000000000000000000000000000000000000000000000000602082015250565b6000612c3a602183611d8c565b9150612c4582612bde565b604082019050919050565b60006020820190508181036000830152612c6981612c2d565b9050919050565b6000604082019050612c856000830185611c6f565b612c926020830184611c6f565b9392505050565b7f455243313135353a2073657474696e6720617070726f76616c2073746174757360008201527f20666f722073656c660000000000000000000000000000000000000000000000602082015250565b6000612cf5602983611d8c565b9150612d0082612c99565b604082019050919050565b60006020820190508181036000830152612d2481612ce8565b9050919050565b7f455243313135353a206275726e2066726f6d20746865207a65726f206164647260008201527f6573730000000000000000000000000000000000000000000000000000000000602082015250565b6000612d87602383611d8c565b9150612d9282612d2b565b604082019050919050565b60006020820190508181036000830152612db681612d7a565b9050919050565b7f455243313135353a206275726e20616d6f756e7420657863656564732062616c60008201527f616e636500000000000000000000000000000000000000000000000000000000602082015250565b6000612e19602483611d8c565b9150612e2482612dbd565b604082019050919050565b60006020820190508181036000830152612e4881612e0c565b9050919050565b612e5881611bbb565b82525050565b600081519050919050565b600082825260208201905092915050565b6000612e8582612e5e565b612e8f8185612e69565b9350612e9f818560208601611d9d565b612ea881611dd0565b840191505092915050565b600060a082019050612ec86000830188612e4f565b612ed56020830187612e4f565b8181036040830152612ee781866122d0565b90508181036060830152612efb81856122d0565b90508181036080830152612f0f8184612e7a565b90509695505050505050565b600081519050612f2a81611cc5565b92915050565b600060208284031215612f4657612f45611b91565b5b6000612f5484828501612f1b565b91505092915050565b60008160e01c9050919050565b600060033d1115612f895760046000803e612f86600051612f5d565b90505b90565b600060443d1015612f9c5761301f565b612fa4611b87565b60043d036004823e80513d602482011167ffffffffffffffff82111715612fcc57505061301f565b808201805167ffffffffffffffff811115612fea575050505061301f565b80602083010160043d03850181111561300757505050505061301f565b61301682602001850186611e70565b82955050505050505b90565b7f455243313135353a207472616e7366657220746f206e6f6e204552433131353560008201527f526563656976657220696d706c656d656e746572000000000000000000000000602082015250565b600061307e603483611d8c565b915061308982613022565b604082019050919050565b600060208201905081810360008301526130ad81613071565b9050919050565b7f455243313135353a204552433131353552656365697665722072656a6563746560008201527f6420746f6b656e73000000000000000000000000000000000000000000000000602082015250565b6000613110602883611d8c565b915061311b826130b4565b604082019050919050565b6000602082019050818103600083015261313f81613103565b9050919050565b600060a08201905061315b6000830188612e4f565b6131686020830187612e4f565b6131756040830186611c6f565b6131826060830185611c6f565b81810360808301526131948184612e7a565b9050969550505050505056fea26469706673582212206f888f09fbc17fb9441ed3d92f1fe7a93f4070174b280331eaaf6a920c8f422664736f6c63430008090033",
  "linkReferences": {},
  "deployedLinkReferences": {}
}